{
  "_format": "hh-sol-artifact-1",
  "contractName": "Voter",
  "sourceName": "src/backend/contracts/Voter.sol",
  "abi": [
    {
      "inputs": [],
      "stateMutability": "nonpayable",
      "type": "constructor"
    },
    {
      "anonymous": false,
      "inputs": [
        {
          "indexed": false,
          "internalType": "address",
          "name": "_owner",
          "type": "address"
        },
        {
          "indexed": false,
          "internalType": "address",
          "name": "_participant",
          "type": "address"
        },
        {
          "components": [
            {
              "internalType": "uint256",
              "name": "id",
              "type": "uint256"
            },
            {
              "internalType": "address",
              "name": "addr",
              "type": "address"
            },
            {
              "internalType": "bool",
              "name": "isVoted",
              "type": "bool"
            }
          ],
          "indexed": false,
          "internalType": "struct Voter.Citizen",
          "name": "_citizen",
          "type": "tuple"
        }
      ],
      "name": "AdditionOfCitizen",
      "type": "event"
    },
    {
      "anonymous": false,
      "inputs": [
        {
          "indexed": false,
          "internalType": "address",
          "name": "_owner",
          "type": "address"
        },
        {
          "components": [
            {
              "internalType": "string",
              "name": "name",
              "type": "string"
            },
            {
              "internalType": "uint256",
              "name": "id",
              "type": "uint256"
            },
            {
              "internalType": "address",
              "name": "addr",
              "type": "address"
            }
          ],
          "indexed": false,
          "internalType": "struct Leader.Contestants",
          "name": "_newContestant",
          "type": "tuple"
        }
      ],
      "name": "AdditionOfParticipant",
      "type": "event"
    },
    {
      "anonymous": false,
      "inputs": [
        {
          "indexed": false,
          "internalType": "address",
          "name": "_participant",
          "type": "address"
        },
        {
          "indexed": false,
          "internalType": "address",
          "name": "_voter",
          "type": "address"
        },
        {
          "components": [
            {
              "internalType": "uint256",
              "name": "id",
              "type": "uint256"
            },
            {
              "internalType": "address",
              "name": "addr",
              "type": "address"
            },
            {
              "internalType": "bool",
              "name": "isVoted",
              "type": "bool"
            }
          ],
          "indexed": false,
          "internalType": "struct Voter.Citizen",
          "name": "_citizen",
          "type": "tuple"
        }
      ],
      "name": "VotedforParticipant",
      "type": "event"
    },
    {
      "inputs": [
        {
          "internalType": "address",
          "name": "_addr",
          "type": "address"
        }
      ],
      "name": "addCitizen",
      "outputs": [],
      "stateMutability": "nonpayable",
      "type": "function"
    },
    {
      "inputs": [
        {
          "internalType": "string",
          "name": "_name",
          "type": "string"
        },
        {
          "internalType": "address",
          "name": "_addr",
          "type": "address"
        }
      ],
      "name": "addParticipant",
      "outputs": [],
      "stateMutability": "nonpayable",
      "type": "function"
    },
    {
      "inputs": [
        {
          "internalType": "uint256",
          "name": "",
          "type": "uint256"
        }
      ],
      "name": "allCitizens",
      "outputs": [
        {
          "internalType": "uint256",
          "name": "id",
          "type": "uint256"
        },
        {
          "internalType": "address",
          "name": "addr",
          "type": "address"
        },
        {
          "internalType": "bool",
          "name": "isVoted",
          "type": "bool"
        }
      ],
      "stateMutability": "view",
      "type": "function"
    },
    {
      "inputs": [
        {
          "internalType": "address",
          "name": "",
          "type": "address"
        }
      ],
      "name": "citizens",
      "outputs": [
        {
          "internalType": "uint256",
          "name": "id",
          "type": "uint256"
        },
        {
          "internalType": "address",
          "name": "addr",
          "type": "address"
        },
        {
          "internalType": "bool",
          "name": "isVoted",
          "type": "bool"
        }
      ],
      "stateMutability": "view",
      "type": "function"
    },
    {
      "inputs": [
        {
          "internalType": "address",
          "name": "",
          "type": "address"
        }
      ],
      "name": "leaders",
      "outputs": [
        {
          "internalType": "string",
          "name": "name",
          "type": "string"
        },
        {
          "internalType": "uint256",
          "name": "id",
          "type": "uint256"
        },
        {
          "internalType": "address",
          "name": "addr",
          "type": "address"
        }
      ],
      "stateMutability": "view",
      "type": "function"
    },
    {
      "inputs": [
        {
          "internalType": "address",
          "name": "",
          "type": "address"
        }
      ],
      "name": "noOfLeaderVotes",
      "outputs": [
        {
          "internalType": "uint256",
          "name": "",
          "type": "uint256"
        }
      ],
      "stateMutability": "view",
      "type": "function"
    },
    {
      "inputs": [],
      "name": "noOfParticipants",
      "outputs": [
        {
          "internalType": "uint256",
          "name": "",
          "type": "uint256"
        }
      ],
      "stateMutability": "view",
      "type": "function"
    },
    {
      "inputs": [],
      "name": "noOfVoters",
      "outputs": [
        {
          "internalType": "uint256",
          "name": "",
          "type": "uint256"
        }
      ],
      "stateMutability": "view",
      "type": "function"
    },
    {
      "inputs": [],
      "name": "owner",
      "outputs": [
        {
          "internalType": "address",
          "name": "",
          "type": "address"
        }
      ],
      "stateMutability": "view",
      "type": "function"
    },
    {
      "inputs": [
        {
          "internalType": "uint256",
          "name": "",
          "type": "uint256"
        }
      ],
      "name": "participants",
      "outputs": [
        {
          "internalType": "string",
          "name": "name",
          "type": "string"
        },
        {
          "internalType": "uint256",
          "name": "id",
          "type": "uint256"
        },
        {
          "internalType": "address",
          "name": "addr",
          "type": "address"
        }
      ],
      "stateMutability": "view",
      "type": "function"
    },
    {
      "inputs": [
        {
          "internalType": "address",
          "name": "_leader",
          "type": "address"
        }
      ],
      "name": "voteLeader",
      "outputs": [],
      "stateMutability": "nonpayable",
      "type": "function"
    },
    {
      "inputs": [
        {
          "internalType": "address",
          "name": "",
          "type": "address"
        }
      ],
      "name": "voters",
      "outputs": [
        {
          "internalType": "bool",
          "name": "",
          "type": "bool"
        }
      ],
      "stateMutability": "view",
      "type": "function"
    }
  ],
  "bytecode": "0x60a060405234801561001057600080fd5b503373ffffffffffffffffffffffffffffffffffffffff1660808173ffffffffffffffffffffffffffffffffffffffff1681525050600080819055506000600481905550608051611e7161008b60003960008181610390015281816106d001528181610c3401528181610cfe015261101b0152611e716000f3fe608060405234801561001057600080fd5b50600436106100b45760003560e01c806381e121af1161007157806381e121af146101a75780638da5cb5b146101c3578063a3ec138d146101e1578063cbbe596814610211578063d4f910a714610241578063f5b5df4814610273576100b4565b806308726296146100b957806335c1d349146100d75780633920dfdf146101095780634730525d14610125578063570d64e614610143578063749ea59814610175575b600080fd5b6100c161028f565b6040516100ce91906110a6565b60405180910390f35b6100f160048036038101906100ec9190611101565b610295565b604051610100939291906111ff565b60405180910390f35b610123600480360381019061011e9190611269565b610377565b005b61012d61075e565b60405161013a91906110a6565b60405180910390f35b61015d60048036038101906101589190611101565b610764565b60405161016c939291906112b1565b60405180910390f35b61018f600480360381019061018a9190611269565b6107cb565b60405161019e939291906111ff565b60405180910390f35b6101c160048036038101906101bc9190611269565b61089d565b005b6101cb610c32565b6040516101d891906112e8565b60405180910390f35b6101fb60048036038101906101f69190611269565b610c56565b6040516102089190611303565b60405180910390f35b61022b60048036038101906102269190611269565b610c76565b60405161023891906110a6565b60405180910390f35b61025b60048036038101906102569190611269565b610c8e565b60405161026a939291906112b1565b60405180910390f35b61028d60048036038101906102889190611453565b610ce5565b005b60005481565b600181815481106102a557600080fd5b90600052602060002090600302016000915090508060000180546102c8906114de565b80601f01602080910402602001604051908101604052809291908181526020018280546102f4906114de565b80156103415780601f1061031657610100808354040283529160200191610341565b820191906000526020600020905b81548152906001019060200180831161032457829003601f168201915b5050505050908060010154908060020160009054906101000a900473ffffffffffffffffffffffffffffffffffffffff16905083565b3373ffffffffffffffffffffffffffffffffffffffff167f000000000000000000000000000000000000000000000000000000000000000073ffffffffffffffffffffffffffffffffffffffff16146103cf57600080fd5b60001515600760008373ffffffffffffffffffffffffffffffffffffffff1673ffffffffffffffffffffffffffffffffffffffff16815260200190815260200160002060009054906101000a900460ff16151514610462576040517f08c379a000000000000000000000000000000000000000000000000000000000815260040161045990611581565b60405180910390fd5b604051806060016040528060045481526020018273ffffffffffffffffffffffffffffffffffffffff16815260200160001515815250600660008373ffffffffffffffffffffffffffffffffffffffff1673ffffffffffffffffffffffffffffffffffffffff1681526020019081526020016000206000820151816000015560208201518160010160006101000a81548173ffffffffffffffffffffffffffffffffffffffff021916908373ffffffffffffffffffffffffffffffffffffffff16021790555060408201518160010160146101000a81548160ff0219169083151502179055509050506001600760008373ffffffffffffffffffffffffffffffffffffffff1673ffffffffffffffffffffffffffffffffffffffff16815260200190815260200160002060006101000a81548160ff0219169083151502179055506005600660008373ffffffffffffffffffffffffffffffffffffffff1673ffffffffffffffffffffffffffffffffffffffff1681526020019081526020016000209080600181540180825580915050600190039060005260206000209060020201600090919091909150600082015481600001556001820160009054906101000a900473ffffffffffffffffffffffffffffffffffffffff168160010160006101000a81548173ffffffffffffffffffffffffffffffffffffffff021916908373ffffffffffffffffffffffffffffffffffffffff1602179055506001820160149054906101000a900460ff168160010160146101000a81548160ff02191690831515021790555050507fc81ff8c38592c910e3cf9fc0a087bbf0689d6e6504e188d15340ef68651be96c7f000000000000000000000000000000000000000000000000000000000000000082600660008573ffffffffffffffffffffffffffffffffffffffff1673ffffffffffffffffffffffffffffffffffffffff16815260200190815260200160002060405161073e939291906116cb565b60405180910390a160016004546107559190611731565b60048190555050565b60045481565b6005818154811061077457600080fd5b90600052602060002090600202016000915090508060000154908060010160009054906101000a900473ffffffffffffffffffffffffffffffffffffffff16908060010160149054906101000a900460ff16905083565b60026020528060005260406000206000915090508060000180546107ee906114de565b80601f016020809104026020016040519081016040528092919081815260200182805461081a906114de565b80156108675780601f1061083c57610100808354040283529160200191610867565b820191906000526020600020905b81548152906001019060200180831161084a57829003601f168201915b5050505050908060010154908060020160009054906101000a900473ffffffffffffffffffffffffffffffffffffffff16905083565b8073ffffffffffffffffffffffffffffffffffffffff163373ffffffffffffffffffffffffffffffffffffffff160361090b576040517f08c379a0000000000000000000000000000000000000000000000000000000008152600401610902906117b1565b60405180910390fd5b3373ffffffffffffffffffffffffffffffffffffffff16600660003373ffffffffffffffffffffffffffffffffffffffff1673ffffffffffffffffffffffffffffffffffffffff16815260200190815260200160002060010160009054906101000a900473ffffffffffffffffffffffffffffffffffffffff1673ffffffffffffffffffffffffffffffffffffffff16146109db576040517f08c379a00000000000000000000000000000000000000000000000000000000081526004016109d290611843565b60405180910390fd5b60001515600660003373ffffffffffffffffffffffffffffffffffffffff1673ffffffffffffffffffffffffffffffffffffffff16815260200190815260200160002060010160149054906101000a900460ff16151514610a71576040517f08c379a0000000000000000000000000000000000000000000000000000000008152600401610a68906118af565b60405180910390fd5b60011515600760003373ffffffffffffffffffffffffffffffffffffffff1673ffffffffffffffffffffffffffffffffffffffff16815260200190815260200160002060009054906101000a900460ff16151514610b04576040517f08c379a0000000000000000000000000000000000000000000000000000000008152600401610afb90611941565b60405180910390fd5b6001600360008373ffffffffffffffffffffffffffffffffffffffff1673ffffffffffffffffffffffffffffffffffffffff16815260200190815260200160002054610b509190611731565b600360008373ffffffffffffffffffffffffffffffffffffffff1673ffffffffffffffffffffffffffffffffffffffff168152602001908152602001600020819055506000600660003373ffffffffffffffffffffffffffffffffffffffff1673ffffffffffffffffffffffffffffffffffffffff168152602001908152602001600020905060018160010160146101000a81548160ff0219169083151502179055507f17ffe7dd1e916daa2b6f295ffec21bd0573af400ded64691c9db8f15cbe72796823383604051610c26939291906119bf565b60405180910390a15050565b7f000000000000000000000000000000000000000000000000000000000000000081565b60076020528060005260406000206000915054906101000a900460ff1681565b60036020528060005260406000206000915090505481565b60066020528060005260406000206000915090508060000154908060010160009054906101000a900473ffffffffffffffffffffffffffffffffffffffff16908060010160149054906101000a900460ff16905083565b3373ffffffffffffffffffffffffffffffffffffffff167f000000000000000000000000000000000000000000000000000000000000000073ffffffffffffffffffffffffffffffffffffffff1614610d3d57600080fd5b8073ffffffffffffffffffffffffffffffffffffffff16600260008373ffffffffffffffffffffffffffffffffffffffff1673ffffffffffffffffffffffffffffffffffffffff16815260200190815260200160002060020160009054906101000a900473ffffffffffffffffffffffffffffffffffffffff1673ffffffffffffffffffffffffffffffffffffffff1603610e0d576040517f08c379a0000000000000000000000000000000000000000000000000000000008152600401610e0490611a42565b60405180910390fd5b6001604051806060016040528084815260200160018054905081526020018373ffffffffffffffffffffffffffffffffffffffff1681525090806001815401808255809150506001900390600052602060002090600302016000909190919091506000820151816000019081610e839190611c0e565b506020820151816001015560408201518160020160006101000a81548173ffffffffffffffffffffffffffffffffffffffff021916908373ffffffffffffffffffffffffffffffffffffffff16021790555050506000600360008373ffffffffffffffffffffffffffffffffffffffff1673ffffffffffffffffffffffffffffffffffffffff16815260200190815260200160002081905550604051806060016040528083815260200160005481526020018273ffffffffffffffffffffffffffffffffffffffff16815250600260008373ffffffffffffffffffffffffffffffffffffffff1673ffffffffffffffffffffffffffffffffffffffff1681526020019081526020016000206000820151816000019081610fa39190611c0e565b506020820151816001015560408201518160020160006101000a81548173ffffffffffffffffffffffffffffffffffffffff021916908373ffffffffffffffffffffffffffffffffffffffff1602179055509050507fe459765e636bddc4db7d17ebd9cab0a55ac10acc6ba3531bd45aaba9b70f6c4e7f00000000000000000000000000000000000000000000000000000000000000006001600054815481106110505761104f611ce0565b5b906000526020600020906003020160405161106c929190611e0b565b60405180910390a160016000546110839190611731565b6000819055505050565b6000819050919050565b6110a08161108d565b82525050565b60006020820190506110bb6000830184611097565b92915050565b6000604051905090565b600080fd5b600080fd5b6110de8161108d565b81146110e957600080fd5b50565b6000813590506110fb816110d5565b92915050565b600060208284031215611117576111166110cb565b5b6000611125848285016110ec565b91505092915050565b600081519050919050565b600082825260208201905092915050565b60005b8381101561116857808201518184015260208101905061114d565b60008484015250505050565b6000601f19601f8301169050919050565b60006111908261112e565b61119a8185611139565b93506111aa81856020860161114a565b6111b381611174565b840191505092915050565b600073ffffffffffffffffffffffffffffffffffffffff82169050919050565b60006111e9826111be565b9050919050565b6111f9816111de565b82525050565b600060608201905081810360008301526112198186611185565b90506112286020830185611097565b61123560408301846111f0565b949350505050565b611246816111de565b811461125157600080fd5b50565b6000813590506112638161123d565b92915050565b60006020828403121561127f5761127e6110cb565b5b600061128d84828501611254565b91505092915050565b60008115159050919050565b6112ab81611296565b82525050565b60006060820190506112c66000830186611097565b6112d360208301856111f0565b6112e060408301846112a2565b949350505050565b60006020820190506112fd60008301846111f0565b92915050565b600060208201905061131860008301846112a2565b92915050565b600080fd5b600080fd5b7f4e487b7100000000000000000000000000000000000000000000000000000000600052604160045260246000fd5b61136082611174565b810181811067ffffffffffffffff8211171561137f5761137e611328565b5b80604052505050565b60006113926110c1565b905061139e8282611357565b919050565b600067ffffffffffffffff8211156113be576113bd611328565b5b6113c782611174565b9050602081019050919050565b82818337600083830152505050565b60006113f66113f1846113a3565b611388565b90508281526020810184848401111561141257611411611323565b5b61141d8482856113d4565b509392505050565b600082601f83011261143a5761143961131e565b5b813561144a8482602086016113e3565b91505092915050565b6000806040838503121561146a576114696110cb565b5b600083013567ffffffffffffffff811115611488576114876110d0565b5b61149485828601611425565b92505060206114a585828601611254565b9150509250929050565b7f4e487b7100000000000000000000000000000000000000000000000000000000600052602260045260246000fd5b600060028204905060018216806114f657607f821691505b602082108103611509576115086114af565b5b50919050565b7f54686973206164647265737320697320616c726561647920696e20746865205660008201527f6f74657273204c69737400000000000000000000000000000000000000000000602082015250565b600061156b602a83611139565b91506115768261150f565b604082019050919050565b6000602082019050818103600083015261159a8161155e565b9050919050565b60008160001c9050919050565b6000819050919050565b60006115cb6115c6836115a1565b6115ae565b9050919050565b6115db8161108d565b82525050565b600073ffffffffffffffffffffffffffffffffffffffff82169050919050565b600061161461160f836115a1565b6115e1565b9050919050565b611624816111de565b82525050565b60008160a01c9050919050565b600060ff82169050919050565b60006116576116528361162a565b611637565b9050919050565b61166781611296565b82525050565b606082016000808301549050611682816115b8565b61168f60008601826115d2565b50600183015490506116a081611601565b6116ad602086018261161b565b506116b781611644565b6116c4604086018261165e565b5050505050565b600060a0820190506116e060008301866111f0565b6116ed60208301856111f0565b6116fa604083018461166d565b949350505050565b7f4e487b7100000000000000000000000000000000000000000000000000000000600052601160045260246000fd5b600061173c8261108d565b91506117478361108d565b925082820190508082111561175f5761175e611702565b5b92915050565b7f53656c6620566f74696e672063616e6e6f742074616b6520706c616365000000600082015250565b600061179b601d83611139565b91506117a682611765565b602082019050919050565b600060208201905081810360008301526117ca8161178e565b9050919050565b7f546869732061646472657373206973206e6f7420696e206f757220636974697a60008201527f656e206c69737420636f6e746163742061646d696e2f6f776e65720000000000602082015250565b600061182d603b83611139565b9150611838826117d1565b604082019050919050565b6000602082019050818103600083015261185c81611820565b9050919050565b7f4475706c696361746520766f7465732063616e6e6f7420626520646f6e650000600082015250565b6000611899601e83611139565b91506118a482611863565b602082019050919050565b600060208201905081810360008301526118c88161188c565b9050919050565b7f546869732061646472657373206973206e6f7420696e2074686520766f74657260008201527f73206c69737420636f6e746163742061646d696e2f6f776e6572000000000000602082015250565b600061192b603a83611139565b9150611936826118cf565b604082019050919050565b6000602082019050818103600083015261195a8161191e565b9050919050565b606082016000808301549050611976816115b8565b61198360008601826115d2565b506001830154905061199481611601565b6119a1602086018261161b565b506119ab81611644565b6119b8604086018261165e565b5050505050565b600060a0820190506119d460008301866111f0565b6119e160208301856111f0565b6119ee6040830184611961565b949350505050565b7f4f6e6c79206f6e65206775792063616e206164642068696d2f68657200000000600082015250565b6000611a2c601c83611139565b9150611a37826119f6565b602082019050919050565b60006020820190508181036000830152611a5b81611a1f565b9050919050565b60008190508160005260206000209050919050565b60006020601f8301049050919050565b600082821b905092915050565b600060088302611ac47fffffffffffffffffffffffffffffffffffffffffffffffffffffffffffffffff82611a87565b611ace8683611a87565b95508019841693508086168417925050509392505050565b6000819050919050565b6000611b0b611b06611b018461108d565b611ae6565b61108d565b9050919050565b6000819050919050565b611b2583611af0565b611b39611b3182611b12565b848454611a94565b825550505050565b600090565b611b4e611b41565b611b59818484611b1c565b505050565b5b81811015611b7d57611b72600082611b46565b600181019050611b5f565b5050565b601f821115611bc257611b9381611a62565b611b9c84611a77565b81016020851015611bab578190505b611bbf611bb785611a77565b830182611b5e565b50505b505050565b600082821c905092915050565b6000611be560001984600802611bc7565b1980831691505092915050565b6000611bfe8383611bd4565b9150826002028217905092915050565b611c178261112e565b67ffffffffffffffff811115611c3057611c2f611328565b5b611c3a82546114de565b611c45828285611b81565b600060209050601f831160018114611c785760008415611c66578287015190505b611c708582611bf2565b865550611cd8565b601f198416611c8686611a62565b60005b82811015611cae57848901518255600182019150602085019450602081019050611c89565b86831015611ccb5784890151611cc7601f891682611bd4565b8355505b6001600288020188555050505b505050505050565b7f4e487b7100000000000000000000000000000000000000000000000000000000600052603260045260246000fd5b600082825260208201905092915050565b60008154611d2d816114de565b611d378186611d0f565b94506001821660008114611d525760018114611d6857611d9b565b60ff198316865281151560200286019350611d9b565b611d7185611a62565b60005b83811015611d9357815481890152600182019150602081019050611d74565b808801955050505b50505092915050565b60006060830160008084018583036000870152611dc18382611d20565b92505060018401549050611dd4816115b8565b611de160208701826115d2565b5060028401549050611df281611601565b611dff604087018261161b565b50819250505092915050565b6000604082019050611e2060008301856111f0565b8181036020830152611e328184611da4565b9050939250505056fea264697066735822122020efbc2fd375f975719fc9a35350ec88cf9b03f0a46e8507d0c4ef52acc7530d64736f6c63430008110033",
  "linkReferences": {},
  "deployedLinkReferences": {}
}